:020000040800F2
:100000008814002005010008D92E0008B129000835
:100010000D2A00086D210008633D00080000000063
:10002000000000000000000000000000A1350008F2
:100030000D22000800000000A9330008F538000870
:100040001F0100081F0100081F0100081F01000810
:100050001F0100081F0100081F0100081F01000800
:100060001F010008D12400081F0100081F0100081B
:100070001F0100081F0100081F0100081F010008E0
:100080001F0100081F010008450B00081F010008A0
:100090001F0100081F0100081F0100081F010008C0
:1000A0001F0100081F0100081F0100081F010008B0
:1000B0001F0100081F0100081F0100081F010008A0
:1000C0001F0100081F0100081F0100081F01000890
:1000D0001F0100081F0100081F0100088D3B0008D8
:1000E000B92300081F0100081F010008DFF810D025
:1000F00000F0B4FC00480047673E0008AFF3008002
:10010000881400200648804706480047FEE7FEE7BF
:10011000FEE7FEE7FEE7FEE7FEE7FEE7FEE7FEE7B7
:1001200011390008ED00000840EA01039B0703D0E5
:1001300009E008C9121F08C0042AFAD203E011F826
:10014000013B00F8013B521EF9D27047D2B201E0E8
:1001500000F8012B491EFBD270470022F6E710B5CC
:1001600013460A4604461946FFF7F0FF204610BD25
:10017000421C10F8011B0029FBD1801A704703466E
:1001800011F8012B00F8012B002AF9D1184670470D
:100190002DE9F0410E460546002400E0641C285D70
:1001A00000F06FFB0746305D00F06BFB381A02D1A0
:1001B000295D0029F2D1BDE8F08170B5064603F053
:1001C000EFFD046805460A220021304600F05FFB7F
:1001D0002C6070BDF0B480EA0102D40F4200B2EB93
:1001E000410F02D20246084611464A0042D0C30DD2
:1001F000DDB2C1F3C752AD1A202D35DAC1F31601B5
:1002000041F4000204B15242C5F1200602FA06F19F
:100210002A411044B3EBD05F23D0C4B1012DA0EB31
:10022000C35009DCF0BC4FF0004202EAC352DBB21B
:1002300000F5000000F06CBB400000F1807000EBA6
:10024000C350A0F1807040EAD170490009E049082C
:1002500041EAC071A0EBC35000F50000400800EB7C
:10026000C350F0BC00F04BBB6142012202EB4101E4
:10027000001BF6E7F0BC704781F00041AAE780F070
:100280000040A7E780EA010210B502F000434000F9
:1002900022D04A001FD0010E01EB1261C0F35600BC
:1002A000C2F3560240F4000042F40002A0FB022018
:1002B00000047F39140400D0401C50EA124001D4DD
:1002C0004000491EC2B20C0604EBD010401C40088E
:1002D000802A02D003E0002010BD20F00100002998
:1002E00000DA0020184310BD30B480EA010202F0A9
:1002F000004530F0004221F0004013D090B1C30D12
:10030000D40DC2F31601C0F31600E41A41F4000143
:1003100040F400027D34914201D3641C00E04900A6
:10032000002C02DA30BC002070474FF4000000239C
:10033000914201D3891A034340084FEA4101F7D1A2
:1003400051B1914202D14FF0004105E002D24FF08D
:10035000010101E06FF0010103EBC450284430BCFF
:1003600000F0CDBA2DE9FE4F804681EA0300C00FB0
:100370000C46009021F0004123F00045B8EB02004C
:10038000A94105D24046214690461C460B460246EE
:1003900023F00040104347D0270DC7F30A00C3F3F2
:1003A0000A510290401A019040286BDAC3F31300FF
:1003B00040F4801B0098924620B10023D2EB030A40
:1003C00063EB0B0B01985946C0F14002504600F018
:1003D00027FA06460D4650465946019A00F03FFA64
:1003E00010EB08006141002487EA115284EAE773A8
:1003F0001A4340D0009A62B3019A012A4FEA075289
:1004000015DC001B61EB02014FF0004202EA0752CB
:10041000CDE90042001C41F5801132462B4600F028
:10042000B4FA03B0BDE8F08F40462146F9E7001B5F
:1004300061EB0201001C41F5801300185B4120189C
:10044000A2F5001747EB030140EAD570B6196D41DC
:1004500011E06D084FEA360645EAC0754FEA0752CB
:10046000001B61EB0201001C41F5801149084FEAB5
:1004700030000019514132462B4603B0BDE8F04F21
:1004800000F074BA0098012240000023D0EB020271
:1004900063EBE073009821464FEAE074B8EB00008C
:1004A00061EB0401E9E783F000435BE781F0004181
:1004B00058E72DE9FE4F81EA030404F0004421F0DF
:1004C000004100944FF0000B23F0004350EA010478
:1004D0005ED052EA03045BD0C3F30A54C1F30A5559
:1004E0002C44A4F2F3340194A0FB0254C1F3130191
:1004F00041F48011C3F3130343F4801301FB02445E
:1005000000FB034E840A970A44EA815447EA835762
:10051000A4FB076802958D0A05FB07854FEA932C1B
:1005200004FB0C542705029D4FEA065847EA16378C
:10053000B5EB08056EEB070C870E920E47EA8117A4
:1005400042EA8312A7FB0201B6EB0B0164EB000445
:100550002B0D43EA0C335E1844EB1C50DA4651462F
:10056000E7FB0201C5F313044FEA0B3343EA1453CC
:100570004FEA0432019C43EA0603A4F10C040294FE
:10058000009CCDE900B400F000FA03B0BDE8F08FA4
:1005900000200146F9E72DE9F04D81EA030404F05B
:1005A000004B21F0004514464FF0000A23F00041B3
:1005B00050EA050220D054EA01021DD0C5F30A57C3
:1005C0000246C5F31303C1F31300C1F30A5640F406
:1005D000801543F48013A7EB0608101BD64608F2DB
:1005E000FD3873EB050002D308F1010801E0921811
:1005F0005B41B8F1000F03DA00200146BDE8F08D41
:1006000000204FF48011064684460EE0171B73EB62
:10061000050705D3121B63EB050306434CEA010CE7
:1006200049084FEA300092185B4150EA0107EDD1CA
:1006300052EA030012D082EA040083EA050108436B
:1006400005D0101BAB4106D20122002306E0002298
:100650004FF0004302E06FF0010253101AEB060066
:100660004CEB085110EB0A0041EB0B01BDE8F04DDB
:1006700000F07CB9C10F80EAE0700844CA079623F5
:10068000002100F045B996230022114600F040B940
:1006900030B4044696230800214604D0B62330BC6B
:1006A000002200F035B920460021F8E70EB540F2EF
:1006B000334102910021CDE900110A460B4600F0BA
:1006C00064F903B000BD0EB540F23342029200223D
:1006D000CDE90022134600F058F903B000BD20F028
:1006E0000040C10DC0F3160040F400007F2901DA7C
:1006F00000207047962903DCC1F19601C84070477D
:10070000963988407047C1F30A5210B5C1F31301FE
:1007100040F2FF3341F480119A4201DA002010BD0B
:1007200040F233439A42A2F2334203DC524200F0D9
:1007300086F810BD904010BDC1F30A52C1F31301F9
:1007400040F2FF3341F480119A4202DA0020014660
:10075000704740F233439A42A2F2334202DC5242E3
:1007600000F06DB800F05CB800F0004230F00040DE
:100770000AD0C10D01F56071C0F3160042EA0151C3
:10078000C20840071143704700200146704700002F
:1007900030B5041E71F1000404DB4FF00044404208
:1007A00064EB0101141E73F1000405DB1C464FF0DD
:1007B0000043524263EB04038B4208BF824230BDC8
:1007C00001F0004330B421F0004150EA010206D0AC
:1007D0000A0DA2F56072C1F31301002A02DC30BCDD
:1007E00000207047440F44EAC104C100E01830BC47
:1007F00000EBC25000F083B8002801DBC0F10040DC
:10080000002901DBC1F1004181427047002801DB72
:10081000C0F10040002901DBC1F10041884270476E
:10082000202A04DB203A00FA02F1002070479140B0
:10083000C2F1200320FA03F3194390407047202AA5
:1008400004DB203A21FA02F00021704721FA02F37A
:10085000D040C2F120029140084319467047202A37
:1008600006DBCB17203A41FA02F043EAE07306E0D8
:1008700041FA02F3D040C2F12002914008431946E8
:100880007047A0F14101192900D8203070472DE9A7
:10089000F04791460F4680460446002614F8015B57
:1008A0002DB100F0EDF80068405DC007F6D12B2DAA
:1008B00002D02D2D18D0641E4A463946204600F03D
:1008C000E3F827B13968A14201D1C7F8008071056A
:1008D0004FF002040BD54042002803DD03F060FA1C
:1008E0000460A007BDE8F08746F48066E4E70028CE
:1008F000F8DA03F055FA04606FF00040F2E70029DF
:10090000A8BF7047401C490008BF20F00100704795
:1009100010B4B0FA80FC00FA0CF050EA010404BFF5
:1009200010BC704749B1CCF1200421FA04F411FA4B
:100930000CF118BF012121430843A3EB0C01CB1D8F
:100940004FEA00614FEA102042BF002010BC704700
:1009500000EBC35010440029A4BF10BC7047401CDA
:10096000490008BF20F0010010BC704710B5141EEC
:1009700073F1000408DA401C41F1000192185B4158
:100980001A4301D120F0010010BD2DE9F04D92462F
:100990009B4611B1B1FA81F202E0B0FA80F2203246
:1009A0009046FFF73DFF04460F4640EA0A0041EA41
:1009B0000B0153465A46084313D0114653EA01002F
:1009C00019D0C8F140025046FFF739FF05460E46E0
:1009D000504659464246FFF723FF084305D0012001
:1009E00004E020463946BDE8F08D0020054346EA84
:1009F000E0762C4337430A986305E40AA0EB08002D
:100A00000022FD0A44EA47540A3002D5002001467C
:100A1000E9E7010510196941DDE908450019694157
:100A2000BDE8F04DA2E7002801DBC0F1004000293D
:100A300001DBC1F10041814202D24FF0004004E0ED
:100A40004FF0005001D14FF0C0404FEA2062EFF369
:100A5000008162F31F6181F300887047064C074DE7
:100A600006E0E06840F0010394E80700984710347E
:100A7000AC42F6D3FFF73EFB2C6200084C62000844
:100A800000487047286200082DE9F05F8246007830
:100A9000002715468B460AF10104B946302801D0DB
:100AA0009DB113E014F8010B0127782803D05828D2
:100AB00001D045B10AE00DB1102D07D10027102556
:100AC00014F8010B02E0082500E00A250026B046D4
:100AD0000EE005FB080005FB06F1012701EB1046BF
:100AE0001FFA80F8B6F5803F00D3B94614F8010B21
:100AF000294600F018F80028EBDABBF1000F05D00A
:100B00000FB1641E00E05446CBF80040B9F1000F6D
:100B100006D003F045F902210160C81EBDE8F09F30
:100B200048EA0640FAE73A2800D2303820F020029E
:100B3000412A01D3A2F13700884201D34FF0FF30A0
:100B4000704700002DE9FE4F0421284800F0E7F827
:100B5000012849D10421254800F0C0F81421234878
:100B600000F0E6F802900298FFF78DFD2049019011
:100B7000FFF788FB8346FFF7F7FD06464FF0663226
:100B80001C4BFFF708FD80461B4A1C4BFFF791FCEE
:100B90000446FFF715FE82461948007830B119481F
:100BA000C0F800A00020164908701CE05046FFF76E
:100BB000DBFD154A154BCDE90001FFF77AFC044631
:100BC0000D46104801681248FFF75CFB8346FFF7AB
:100BD000CBFD064622462B46FFF7C4FB8046FFF7B7
:100BE000EFFD0849086000BFBDE8FE8F002401400A
:100BF0006740533A66660A40CDCCCCCCCCCC204082
:100C00007C00002080000020353333939999B93F50
:100C10006666663F00B587B00121082002F002FC3D
:100C2000002006900120ADF8180000208DF81B0070
:100C300006A9284801F082FD4FF4004002F0B6FBFF
:100C40000121480202F0EEFB142101A8FFF785FA0A
:100C500000208DF8090004904FF4602003900020DC
:100C6000019001208DF8140000208DF8080001A9E2
:100C7000194800F077F80121174800F0DCF802234A
:100C800001220821144800F095F84FF40051124851
:100C900000F03DF80121104800F02EF801224FF439
:100CA00090610D4800F052F80020009012208DF85D
:100CB000000001208DF803008DF8010000208DF860
:100CC0000200684602F00AF90121034800F009F821
:100CD00007B000BD000C014000240140CA4302607F
:100CE000704721B1826842F00102826003E08268AD
:100CF00022F001028260704721B1826842F4004212
:100D0000826003E0826822F40042826070470A46F3
:100D10000021816821F4E04111438160704702465F
:100D2000002013680B400BB1012000E00020704749
:100D300008B5024600200090009201F12800009BB7
:100D4000184400900098006880B208BD10B50023D8
:100D5000CBB21AB144681C43446002E044689C432F
:100D6000446010BD30B502460020002350680F4C8F
:100D700020400D790C6844EA0524204350609068B7
:100D80000B4C2040D1E902542C434D7944EA4504F0
:100D900020439060D06A20F470000C7C641EE4B2A2
:100DA000234340EA0350D06230BD0000FFFEF0FF55
:100DB000FDF7F1FFF0B5044615460020002200269D
:100DC000092911DDE068A1F10A0707EB470C0727A5
:100DD00007FA0CF29043A1F10A0707EB470703FA61
:100DE00007F21043E0600CE0206901EB410C07279B
:100DF00007FA0CF2904301EB410703FA07F21043A4
:100E00002061A06BC0F30156EF1C06F1010CA7EBAB
:100E10000C0707EB870C1F2707FA0CF29043EF1C17
:100E200006F1010CA7EB0C0707EB870701FA07F2A5
:100E30001043A063F0BD10B50A4600210023816B6A
:100E400021F44011531E41EA0351816310BD00009B
:100E500001480068704700008000002010B5FFF7CF
:100E6000D9FE02F085FD01F0A5FD10BD70B501F0C1
:100E700057FD52490968884200D270BD4F4800684A
:100E8000401C4E4908604E494E480068FFF7B4FCCC
:100E900033D201F045FD4C490968884219D901F067
:100EA0003FFD6430484908604848007890B9012007
:100EB0004649087001221021454801F01CFD01221D
:100EC0002021434801F017FD01224021404801F054
:100ED00012FD70E000203D490870002210213C48BE
:100EE00001F009FD00222021394801F004FD002213
:100EF0004021374801F0FFFC5DE032480068FFF711
:100F000033FC0446334A344BFFF742FC0FD2002235
:100F100010212F4801F0EFFC002220212C4801F085
:100F2000EAFC002240212A4801F0E5FC43E0254884
:100F30000068FFF719FC0446284A294BFFF728FCF4
:100F40000FD201221021224801F0D5FC00222021DD
:100F50001F4801F0D0FC002240211D4801F0CBFCCD
:100F600029E018480068FFF7FFFB04464FF03332D2
:100F70001C4BFFF70DFC0FD201221021144801F089
:100F8000BAFC01222021124801F0B5FC00224021C8
:100F90000F4801F0B0FC0EE0012210210C4801F0D6
:100FA000AAFC012220210A4801F0A5FC01224021CF
:100FB000074801F0A0FC00BF5FE7000084000020AC
:100FC0000000C04080000020880000208C0000202D
:100FD00000080140CDCCCCCCCCCC1A409A99999940
:100FE00099991D40333320401CB50020009001909A
:100FF00008480090C014ADF804006946064801F0A6
:10100000BBFD0649044801F030FE0549024801F0E5
:101010002EFE1CBD00080140C8030020693D0008E9
:10102000E529000810B5024801F0DFFD10BD000001
:10103000C803002000B587B00121082002F0F2F9B2
:10104000002006904FF48060ADF8180018208DF84D
:101050001B0002208DF81A0006A9224801F06EFB41
:101060004FF40060ADF8180048208DF81B0006A969
:101070001C4801F063FB0121880402F0B3F9002051
:1010800002900390049005904FF4165002900C20AB
:10109000ADF812000020ADF81000ADF80E00ADF86C
:1010A0000C0002A9104802F0EBFD012240F225518C
:1010B0000D4802F0C0FD0020019027208DF80400AB
:1010C00001208DF8070000208DF805008DF806003E
:1010D00001A801F003FF0121034802F093FD07B0CE
:1010E00000BD0000000C01400048004030B591B048
:1010F0001348007840B172B6124901A8FFF73FF8D3
:1011000000200F49087062B601A8FFF731F884B2D9
:10111000002008E001A9095C202902D1002101AAD0
:101120001154411C88B2A042F4DB01AD06A128464F
:10113000FFF72EF810B901A801F003FD11B030BD82
:1011400002000020340100206D6F76650000000071
:1011500000B587B01C216846FEF7FFFF1F480090CE
:10116000019000200290069003901D4804901D48B5
:10117000059069461C4802F023F81C480090019035
:101180001B4802900020069003901A4804901A48C9
:1011900005906946194802F013F81948009001902B
:1011A0000020029006900390124804901248059087
:1011B0006946144802F004F84FF07E500090002079
:1011C0000190029006900390054804900548059010
:1011D00069460D4801F0F4FF07B000BDCDCC4C3D91
:1011E00000002041000020C1080300200000E04072
:1011F000295C0F3E0000C8420000C8C2480200201F
:101200000000F041A8020020680300202DE9F05FF3
:101210000446894684F0004B5846FFF7A5FA074676
:1012200000220F4BFFF7B7F90546FFF7C9FA8246D0
:1012300051460C4801F0FAFE89F0004B5846FFF782
:1012400093FA07460022084BFFF7A5F90546FFF77A
:10125000B7FA82465146054801F0E8FEBDE8F09F26
:101260000000104008030020000024406803002014
:101270002DE9F04F89B001F053FB6E4909688842AF
:1012800002D209B0BDE8F08F6A480068401C694985
:1012900008606948007810B102F0A2FAF1E701F0A5
:1012A00047FB04460D46DFF894C1DCE9000C221A26
:1012B00065EB0C011046FFF706FA614A614BCDE978
:1012C0000001FFF7F6F8CDE90201FFF779FA0746CA
:1012D0005A4930C100F0D8FA049002F09FFD06464A
:1012E00000F0C6FA049002F099FD804600F0C6FABC
:1012F000049002F093FD814600F04EFD039000F053
:1013000047FD02900399FEF765FF4FF0804104907E
:10131000FEF7EAFF824622462B4651464A4801F034
:10132000A7FE4A490390FEF7DFFF049002F0BCFDE0
:1013300083465946464801F079FE22462B463146FF
:10134000434801F095FE08904248089901F06EFE6E
:1013500022462B4641463F4801F08AFE0790304620
:1013600002F02CFE0490304602F08AFE37490090CD
:10137000FEF788FF0290384807990068FEF782FF61
:1013800001900299FEF778FF03900499FEF7ACFFF5
:10139000069039460698FEF775FF03902F480168BE
:1013A0000398FEF7A1FF04902D4801680498FEF70A
:1013B00011FF2B4908602B4929480068FFF726FADE
:1013C00002D2284826490860274925480068FFF7C7
:1013D00013FA02D224482249086022462B46494685
:1013E000224801F045FE05901E4802F017FD0490CA
:1013F00026F0004003900499FFF708FA02D201207A
:101400000D4908701648006880F000400390059967
:10141000FEF7E0FE049000F0A9FD1148006880F09E
:10142000004003900599FEF727FF049000F0A8FD07
:1014300000BF26E7640000205C0000206800002058
:101440008DEDB5A0F7C6B03E08030020CDCC1C4101
:1014500048020020A8020020500000204C0000207C
:10146000480000200000A0420000A0C26803002045
:1014700010B5084801F0C6FE074801F0C3FE074852
:1014800001F0C0FE064801F0BDFE002005490860DD
:1014900010BD000048020020A80200200803002020
:1014A00068030020480000202DE9F04F87B072B695
:1014B0003D48006806903D490C684D683C490E68FF
:1014C0004F6862B64FF07E510698FFF795F904D049
:1014D00038490698FFF790F934D101F029FACDE99F
:1014E0000401A21B65EB07011046FFF7D1F801903C
:1014F000DDE904100A1B60EB05011046FFF7C8F890
:101500000090019902F09BFC0290FFF72DF98046B4
:10151000294A2A4BFEF7CDFF8246FFF751F9039087
:1015200003990698FEF7E0FE0290FFF71DF9824648
:10153000234A244BFEF7BDFF8046FFF741F907B071
:10154000BDE8F08F4FF080410698FFF755F905D0C0
:101550004FF040410698FFF74FF921D101F0E8F92B
:10156000CDE90401DDE904108A1B60EB0701104698
:10157000FFF78EF803904FF080410698FEF7B4FE17
:1015800001900399FEF7B0FE0290FFF7EDF8824656
:101590000B4A0C4BFEF78DFF8046FFF711F9CEE7A3
:1015A00000BF0020CBE70000A8000020B000002012
:1015B000B8000020000080BF8DEDB5A0F7C6B03E9A
:1015C00043D3A2D6E5A88C3F2DE9F04F87B072B681
:1015D00040480068069040490C684D683F490E68D5
:1015E0004F6862B600210698FFF706F903D1002084
:1015F00007B0BDE8F08F4FF07E510698FFF7FCF87A
:1016000004D037490698FFF7F7F832D101F090F986
:10161000CDE90401A21B65EB07011046FFF738F87E
:101620000190DDE904100A1B60EB05011046FFF78D
:101630002FF80090019902F002FC0290FFF794F855
:101640008046284A284BFEF734FF8246FFF7B8F859
:10165000039003990698FEF747FE0290FFF784F87F
:101660008246224A224BFEF724FF8046FFF7A8F865
:10167000BEE74FF080410698FFF7BEF805D04FF067
:1016800040410698FFF7B8F821D101F051F9CDE9B2
:101690000401DDE904108A1B60EB07011046FEF728
:1016A000F7FF03904FF080410698FEF71DFE019072
:1016B0000399FEF719FE0290FFF756F882460B4A8F
:1016C0000B4BFEF7F6FE8046FFF77AF890E700BF77
:1016D00000208DE7AC000020C0000020C8000020E2
:1016E000000080BF8DEDB5A0F7C6B03E43D3A2D6B3
:1016F000E5A88C3F10B501F08BF901F0C9F910BDD8
:1017000006480078062806D0044890F90000801D9D
:1017100008B1012070470020FCE700009000002085
:1017200006480078062806D0044890F90000801D7D
:1017300008B1012070470020FCE700009100002064
:1017400001490870704700007400002000B589B09E
:101750000121084601F056FE0021012001F052FE51
:101760000121084601F03EFE0121880702F023F91D
:101770000020ADF818003F20ADF81C000020ADF8A7
:101780001E00ADF81A008DF8200006A94FF0804029
:1017900002F0AAF900220D21880702F048F901227F
:1017A0001102880502F03AF90121042001F03AFE05
:1017B0000120ADF8140018208DF8170003208DF8D3
:1017C000160005A90D4800F0B9FF6020ADF804002F
:1017D0000120ADF806000020ADF80A00ADF80C00BD
:1017E000ADF8100001A94FF0804002F025F9012169
:1017F000880702F0F8F809B000BD000000080140B9
:1018000010B501F08DF817490968884200D210BD63
:1018100014480068643013490860002406E0E0B210
:1018200000231A46194601F023FF641C052CF6D349
:101830000D48007888B1FF231A4619460B480078F6
:1018400001F016FF09480078401C08490870084656
:101850000078052801DB0020087000F069FD00BF5A
:10186000D5E70000780000207400002075000020FB
:10187000014800687047000024000020014800680B
:10188000704700002C0000200148006870470000ED
:101890003800002010B51648164908608015888069
:1018A0001348886040158881084601F0E3F98021DB
:1018B0006B2002F069FC642000F0AAFC01216B207F
:1018C00002F062FC0021192002F05EFC18211B20AE
:1018D00002F05AFC02211A2002F056FC00211C20C2
:1018E00002F052FC02211D2002F04EFC10BD00004F
:1018F000000C01407401002010B501F011F80749F7
:101900000968884200D210BD04480068401D0349A0
:10191000086000F005F800BFF5E700003C0000207B
:101920002DE9F04F8FB03B2002F01EFC000205B203
:101930003C2002F019FC05430E953D2002F014FCFA
:10194000000205B23E2002F00FFC05430D953F203A
:1019500002F00AFC000205B2402002F005FC05433B
:101960000C95412002F000FC000205B2422002F07A
:10197000FBFB05430B95432002F0F6FB000205B28A
:10198000442002F0F1FB05430A95452002F0ECFBF0
:10199000000205B2462002F0E7FB05430995472007
:1019A00002F0E2FB000205B2482002F0DDFB054335
:1019B00008950E98FEF75EFE05464FF06251FEF761
:1019C00061FCCE4908600D98FEF754FE05464FF0C5
:1019D0006251FEF757FCCA4908600C98FEF74AFEB0
:1019E00005464FF06251FEF74DFCC64908600B9862
:1019F000FEF740FE8346C449FEF744FC8246FEF7EC
:101A0000B3FE0746C14AC24BFEF7ACFC0546FEF7E3
:101A1000D7FEC04908600A98FEF72CFE0646BE496C
:101A2000FEF730FC0546BD4801682846FEF724FC59
:101A3000BB4908600998FEF71DFE0646B649FEF749
:101A400021FC0546B74801682846FEF715FCB64953
:101A500008600898FEF70EFE0646AF49FEF712FC36
:101A60000546B24801682846FEF706FCB049086002
:101A7000A4480168A248006802F048FA07464FF0FF
:101A80007E51FEF7FFFB0646AA49FEF72DFC0546F0
:101A9000A949FEF7F7FB04469A4801689748006891
:101AA00002F034FA80F000474FF07E513846FEF7DE
:101AB000E9FB06469F49FEF717FC05469E49FEF7DF
:101AC000E1FB81469D48007850B100209B49087099
:101AD0009B4908609B48C0F800909B480460BCE0AC
:101AE00093480068FEF740FE8246984A984BFEF7FE
:101AF000E0FC0746884692480068FEF735FE05463A
:101B00003A464346FEF72EFCCDE90601FEF758FEA5
:101B10008B49086049468B480068FEF7ADFB0546D7
:101B20008549FEF773FE06D28A4986480068FEF7AB
:101B3000A3FB84490860834801684846FEF79CFB84
:101B400005467D49FEF762FE06D282497D4800685F
:101B5000FEF740FB7B4908604846FEF705FE054658
:101B60007D4A7E4BFEF7A5FCCDE904016E48006876
:101B7000FEF7FAFD0746754A754BFEF79AFCCDE96C
:101B8000000170480068FEF7EFFD0546DDE900231F
:101B9000FEF7E8FB8246724A724BFEF78AFCCDE9FB
:101BA0000201DDE90423FEF7DDFBCDE90601FEF7C6
:101BB00007FE64490860214663480068FEF75CFB45
:101BC00005465D49FEF722FE06D262495E4800687E
:101BD000FEF752FB5C4908605B4801682046FEF74F
:101BE0004BFB05465449FEF711FE06D259495648AB
:101BF0000068FEF7EFFA544908602046FEF7B4FD8E
:101C00000546554A554BFEF754FCCDE904014448BE
:101C10000068FEF7A9FD07464C4A4D4BFEF749FC0C
:101C200005460E4648480068FEF79EFD82462A4655
:101C30003346FEF797FB4A4A4A4BCDE90001FEF7CF
:101C400038FCCDE90201DDE90423FEF78BFBCDE989
:101C50000601FEF7B5FD3C49086037493848006881
:101C6000FEF7D4FD06D23B4935480068FEF704FB79
:101C7000334908603C4932480068FEF7BDFD06D292
:101C800034492F480068FEF7A5FA2D4908602A4913
:101C90002C480068FEF7BAFD06D22E492948006894
:101CA000FEF7EAFA274908602F4926480068FEF740
:101CB000A3FD06D2274923480068FEF78BFA214985
:101CC00008601D4920480068FEF7A0FD06D22149A2
:101CD0001D480068FEF7D0FA1B49086022491A48DF
:101CE0000068FEF789FD06D21A4917480068FEF71A
:101CF00071FA154908600FB0BDE8F08F140000209C
:101D0000180000201C000020C1C0403BA4703D0A08
:101D1000D74342402000002090C1793D04000020BC
:101D20002400002008000020280000200C000020D3
:101D30002C000020DB0F494000003443100000203D
:101D40003000002034000020380000207B14AE4713
:101D5000E17A743F0000B443E062450DA661A83FFC
:101D6000D2A92B9FE579EE3F000034C310B504469D
:101D7000204600F00FF92146034801F059F92146A9
:101D8000024801F055F910BD88010020E80100204B
:101D900010B5FFF789FB10BD10B5FFF715FC10BD9E
:101DA00000B587B000F008F9FFF7A4FC1C216846D5
:101DB000FEF7D3F9002006900A4800900190002019
:101DC0000290094805900948049000200390694654
:101DD000074801F0F5F96946064801F0F1F907B046
:101DE00000BD0000E7305F3D0000C8C20000C842EF
:101DF00088010020E80100202DE9F04F8DB000F0AF
:101E00008FFD4D490968884202D20DB0BDE8F08FC0
:101E100049480068401C4849086000F089FD0446B4
:101E20000D46FFF741FB0C90FFF7CEFB0B902246CF
:101E30002B4642480C9901F01BF90A9022462B468A
:101E40003F480B9901F014F90990FFF701F8089049
:101E50000C9800F055FD06460B9800F051FD074622
:101E600038480C99FEF70EFA804636480B99FEF773
:101E700009FA8146FFF744FC08B10026B046FFF797
:101E80004FFC08B10027B9462F480C99FEF7FAF924
:101E9000314605900A98FEF79DF941460290FEF7FB
:101EA00099F92A490390FEF7EDF904900599FEF798
:101EB00091F9824624480B99FEF7E4F939460590DA
:101EC0000998FEF787F949460290FEF783F91F4902
:101ED0000390FEF7D7F904900599FEF77BF9834646
:101EE00050460899FEF700FA0190FEF73DFC0022EB
:101EF000174BCDE90201FEF7DCFACDE90401FEF74C
:101F00005FFC079058460899FEF7EEF90190FEF73E
:101F10002BFC00220E4BCDE90201FEF7CAFACDE9F7
:101F20000401FEF74DFC0690079800F04DF8069866
:101F300000F092F800BF68E7400000208801002010
:101F4000E801002020FB6E395839343E175D884186
:101F50000000594010B5034801F054F9024801F05F
:101F600051F910BD88010020E801002010B5044699
:101F70002146024801F05AF810BD000088010020F7
:101F800010B504462146024801F050F810BD00008B
:101F9000E801002010B504462CB1012202210548B9
:101FA00000F0A9FC04E000220221024800F0A3FC9A
:101FB00010BD00000008014010B501F083FC01F0E5
:101FC00029F901F08DF910BD2DE9F04104461D49B4
:101FD0002046FEF71BFC00D21A4C1B492046FEF798
:101FE0000BFC00D2184C00212046FEF70FFC0BD84A
:101FF00001229102154800F07EFC00224FF400718E
:10200000124800F078FC0AE000224FF480610F488B
:1020100000F071FC012251020C4800F06CFC0949EF
:102020002046FEF761F907460949FEF72BF90646F7
:10203000FEF755FB85B22946064801F052FDBDE882
:10204000F08100000000C8420000C8C20008014042
:1020500000C07944002C01402DE9F04104461C49A0
:102060002046FEF7D3FB00D2194C1A492046FEF752
:10207000C3FB00D2174C00212046FEF7C7FB0AD84D
:1020800001222021144800F036FC00228021124851
:1020900000F031FC09E0002220210F4800F02BFC69
:1020A000012280210C4800F026FC09492046FEF759
:1020B0001BF907460949FEF7E5F80646FEF70FFB50
:1020C00085B22946064801F00CFDBDE8F08100000C
:1020D0000000C8420000C8C2000C014000C07944A2
:1020E0000008004000B585B00121042001F09AF9F4
:1020F000002004900420ADF8100018208DF8130083
:1021000002208DF8120004A9164800F017FB0820E1
:10211000ADF8100048208DF8130004A9114800F014
:102120000DFB0121480401F05DF9002000900190B1
:10213000029003904FF4612000900C20ADF80A004B
:102140000020ADF80800ADF80600ADF804006946BF
:10215000054801F095FD0121034801F053FD05B04C
:1021600000BD0000000801400044004000BFFEE741
:1021700000F0805111B10349086001E00249486054
:1021800070470000040402400000024021B10268D0
:1021900042F00102026004E002684FF6FE731A404A
:1021A0000260704701460020002201F0805313B105
:1021B000054B1A6801E0054B1A6802EA01030BB1EE
:1021C000012000E0002070470004024000000240AF
:1021D00010B50022026847F6F0739A430C6A8B68C8
:1021E00023430C6923434C6923438C692343CC6903
:1021F00023434C6A23438C6A23431A430260CB680F
:1022000043600B6883604B68C36010BD704700007B
:1022100070B5044600F022F805480068051900264C
:1022200000BF034800680021401BB141F9D370BDD5
:10223000E400002070B5044600F010F800F078FBD0
:10224000021941F10000551C40F1000600BF00F0EA
:102250006FFB401BB141FAD370BD00002DE9F04186
:1022600086B02E480078002855D101202B490870EF
:10227000142101A8FDF771FF4FF0E020006920F064
:1022800001004FF0E021086100202549086001A805
:1022900001F0D8F84FF0E020006940F002004FF064
:1022A000E021086100211F48C1774FF47A7102983C
:1022B000B0FBF1F4B4F1807F09D3E4084FF0E020E3
:1022C000006920F004004FF0E021086107E04FF0C2
:1022D000E020006940F004004FF0E0210861601E3A
:1022E0004FF0E02148610846006940F001000861B4
:1022F000496921F07F41481CFEF7D8F907463A4664
:102300000B4600200849FEF746F90546FEF758FA45
:102310000649086000BF06B0BDE8F081E800002073
:10232000E400002000ED00E000408F40EC000020C1
:1023300000B58BB05020FFF77DFF0121084601F06A
:1023400041F800211948FFF721FF1948009019486A
:102350000190102002907A200390002004908020A9
:102360000590400006900020079008904FF48050A0
:10237000099000200A9069460C48FFF729FF1020B9
:10238000FFF7F6FE01210948FFF700FF00BF2020FC
:10239000FFF708FF0028FAD000210448FFF7F6FEF7
:1023A0005020FFF747FF0BB000BD00001C000240AB
:1023B0004C000040080400202DE9F0414FF400409B
:1023C00000F016F9012873D1C00300F00BF900F0FA
:1023D000AFFA04460D464FF40041364800F082FA49
:1023E00006464FF48041334800F07CFA0746BE426F
:1023F00023D0002130480068FEF7FEF904D24FF0E8
:1024000080402D49086003E04FF07E502A49086063
:102410002A4802684068521C40F1000027490A60BF
:102420004860274890F90000062829DA24480078F7
:10243000401C40B22249087022E000211E4800687A
:10244000FEF7E4F904D24FF040401B49086002E077
:102450001C4819490860194802684068521E60F11A
:10246000000016490A604860154890F9000010F114
:10247000060F05DD12480078401E40B21049087072
:102480004FF080410C480068FEF7B6F90CD04FF0D1
:10249000404109480068FEF7AFF905D00A480168D5
:1024A00040680A4A1160506007480460456000BFF8
:1024B000BDE8F081000C0140A80000209800002039
:1024C00090000020000080BFB0000020B800002075
:1024D0002DE9F041082000F08BF8012871D1082087
:1024E00000F080F800F024FA04460D460821364832
:1024F00000F0F8F906461021334800F0F3F90746DA
:10250000BE4223D0002131480068FEF775F904D29D
:102510004FF080402D49086003E04FF07E502B497A
:1025200008602B4802684068521C40F100002849AE
:102530000A604860274890F90000062829DA2548F3
:102540000078401C40B22349087022E000211F4857
:102550000068FEF75BF904D24FF040401B49086069
:1025600002E01D4819490860194802684068521E77
:1025700060F1000016490A604860164890F90000B2
:1025800010F1060F05DD13480078401E40B21149D6
:1025900008704FF080410D480068FEF72DF90CD00F
:1025A0004FF0404109480068FEF726F905D00B4876
:1025B000016840680A4A116050600848046045603C
:1025C00000BFBDE8F0810000000C0140AC0000201D
:1025D000A000002091000020000080BFC00000206B
:1025E000C800002001490860704700001404014041
:1025F00001460020034A12680A400AB1012000E0A7
:102600000020704714040140002123498279002AE8
:102610003AD00A46126803689A430B461A600A1DAC
:10262000126803689A430B1D1A60027911440A6804
:1026300003681A430A60184A0832126803689A430A
:10264000154B08331A601A1D126803689A43124B1F
:102650000C331A604279102A0ED11A1F12680368CF
:102660001A430D4B08331A601A1D126803681A4387
:10267000094B0C331A600DE00749427911440A688E
:1026800003681A430A6005E0027911440A68036886
:102690009A430A60704700000004014070B5044688
:1026A0000D460DB1012000E0002006460F4884428F
:1026B00004D13146042000F0B5FE16E00C488442F7
:1026C00004D13146082000F0ADFE0EE009488442F6
:1026D00004D13146102000F0A5FE06E006488442F1
:1026E00003D13146202000F09DFE70BD000801405E
:1026F000000C0140001001400014014030B50022E0
:102700008B071C0F0F2303FA04F20B4B8C1053F8AA
:1027100024309343084C8D1044F8253023468C1008
:1027200053F824308C07240F00FA04F42343024C9E
:102730008D1044F8253030BD080001402DE9F041EE
:10274000024600250026002000230024002791F8DF
:1027500003C00CF00F0591F803C00CF0100CBCF195
:10276000000F03D091F802C04CEA050591F800C0B3
:10277000BCF1000F31D0146800202BE04FF0010CA9
:102780000CFA00F3B1F800C00CEA03069E4220D117
:1027900083004FF00F0C0CFA03F7BC4305FA03FC5F
:1027A0004CEA040491F803C0BCF1280F06D14FF0A5
:1027B000010C0CFA00FCC2F814C00AE091F803C046
:1027C000BCF1480F05D14FF0010C0CFA00FCC2F827
:1027D00010C0401C0828D1D31460B1F800C0BCF16F
:1027E000FF0F34DD546800202EE000F1080C4FF09C
:1027F000010808FA0CF3B1F800C00CEA03069E4287
:1028000021D183004FF00F0C0CFA03F7BC4305FAFB
:1028100003FC4CEA040491F803C0BCF1280F05D175
:1028200000F1080C08FA0CF8C2F8148091F803C003
:10283000BCF1480F07D100F1080C4FF0010808FA6D
:102840000CF8C2F81080401C0828CED35460BDE8B4
:10285000F0810000F0B50A46002300240021002585
:1028600000F00046B6F1004F02D11D4EF16901E0C3
:102870001B4E7168C0F3034583B200F44016B6F5F1
:10288000401F08D121F07061154E766826F0706601
:10289000134F7E6012E000F48016B6F5801F06D15B
:1028A000032606FA05F4A14341F0706106E0460DE7
:1028B000360103FA06F6B14341F0706122B1460DCC
:1028C000360103FA06F6314300F00046B6F1004F38
:1028D00002D1034EF16101E0014E7160F0BD0000D4
:1028E000000001400246002093680B400BB101201C
:1028F00000E0002070470AB1016100E041617047CB
:1029000010B5044600212046FDF780FF01D20248A1
:1029100010BD0248FCE700000AD7233C0AD723BCBD
:1029200010B5FFF79BFC0148006810BDE4000020D3
:102930002DE9F041FFF792FC72B610E01A480468E6
:1029400000254FF0E0208669006900F4803028B14E
:1029500015480068401C1449086000E000E0EDE7FD
:1029600000BF62B64FF47A7200272046A0FB021C1B
:1029700005FB02C204FB07250C464FF0E021496924
:10298000881BFDF780FE8046084801684046FDF739
:1029900079FC0746FDF7A3FE041945F10005204622
:1029A0002946BDE8F0810000E4000020EC00002092
:1029B00000BFFEE708B5002000900121042000F0D0
:1029C00031FD7020ADF8000010208DF803000220CA
:1029D0008DF8020069460248FFF7B0FE08BD00000E
:1029E0000008014010B50446012C0BD106480078C0
:1029F00008B9012000E0002003490870084600786B
:102A0000FEF79EFE10BD00007100002000BFFEE733
:102A10001FB50121082000F005FD002003904FF4B0
:102A20004040ADF80C0028208DF80F0003A917488E
:102A3000FFF784FE0121084600F0F4FC0F2101207D
:102A4000FFF75CFE0020019002904FF400400190DF
:102A500001208DF80A0000208DF8080010208DF864
:102A6000090001A8FFF7D0FD0020009028208DF874
:102A7000000001208DF803008DF8010000208DF882
:102A80000200684600F02AFA1FBD0000000C014059
:102A90001FB50121084600F0C5FC01211E48FFF7C3
:102AA000D9FE0121082000F0BDFC00200390182071
:102AB000ADF80C0028208DF80F0003A91748FFF788
:102AC0003DFE0121084600F0ADFC03210120FFF787
:102AD00015FE0020019002900820019001208DF841
:102AE0000A0000208DF8080010208DF8090001A8C8
:102AF000FFF78AFD0020009009208DF800000120DA
:102B00008DF803008DF8010000208DF80200684662
:102B100000F0E4F91FBD000000023000000C01408D
:102B20002DE9F04105460C462046FDF7A3FD06467B
:102B30002846FDF79FFD07463146FEF767FBBDE8D7
:102B4000F0812DE9F04104462046FDF711FB2044B9
:102B5000451C2846FDF731FB46B22846FDF708FB29
:102B60002844451C2846FDF728FB47B23146384625
:102B7000FFF7D6FFBDE8F08138B504460D4628685A
:102B80002060A888A0800020A060E06020616061D3
:102B90004FF47A70A061C82020626420E0610121B6
:102BA0002068FFF77BFDA088ADF8000048208DF875
:102BB000030069462068FFF7C1FDA06910B94FF412
:102BC0007A70A061E06908B96420E061206A08B900
:102BD000C8202062002004F8240F60706060A060AC
:102BE000E06020742076243C38BD70B50446FFF7C1
:102BF00097FE064694F82500F8B1A06A0A30B04264
:102C00002CD8A1882068FFF76DFE08B9012000E0EC
:102C10000020054694F82400A84208D0012D03D1D5
:102C2000204600F0DDF902E0204600F0E3F984F8E8
:102C30002450002084F8250010E0A1882068FFF7C8
:102C400051FE08B9012000E00020054694F8240058
:102C5000A84203D0A662012084F8250094F824102D
:102C60003246204600F072F970BD01617047416143
:102C70007047000038B5044635492068884204D1C1
:102C80000121042000F0CEFB19E03249206888427F
:102C900004D10121082000F0C5FB10E02E49206876
:102CA000884204D10121102000F0BCFB07E02B4931
:102CB0002068884203D10121202000F0B3FBA189C4
:102CC0000122A068FFF717FEA18801222068FFF704
:102CD00012FE1F49A068884204D10121042000F09F
:102CE000A1FB19E01B49A068884204D101210820FA
:102CF00000F098FB10E01849A068884204D1012137
:102D0000102000F08FFB07E01449A068884203D12F
:102D10000121202000F086FBA088ADF800001420DF
:102D20008DF8030002208DF8020069462068FFF745
:102D300005FDA089ADF8000014208DF803000220E5
:102D40008DF802006946A068FFF7F8FC38BD000066
:102D500000080140000C0140001001400014014037
:102D60002DE9F04704460E4617469846DDF82090B8
:102D7000A1890122A068FFF7BEFDA1880122206879
:102D8000FFF7B9FDA1890022A068FFF7B4FD01207B
:102D900001F04EF806F0FE01204600F002FC30B1D2
:102DA000204600F041FC4FF0FF30BDE8F087394687
:102DB000204600F0F6FB28B1204600F035FC6FF00D
:102DC0000100F2E7A18800222068FFF794FDA189A5
:102DD0000122A068FFF78FFD012001F029F8A188EA
:102DE00001222068FFF787FD012001F021F8A18969
:102DF0000022A068FFF77FFD012001F019F846F0DE
:102E00000101204600F0CDFB28B1204600F00CFC6B
:102E10004FF0FF30C9E700250EE0A9F10100A842FC
:102E200001D0012000E000200146204600F074FBA4
:102E300008F80500681C85B24D45EEDB204600F021
:102E4000F3FB0020B1E72DE9F04704460E46174694
:102E50009846DDF82090A1890122A068FFF74BFD7C
:102E6000A18801222068FFF746FDA1890022A06801
:102E7000FFF741FD012000F0DBFF06F0FE012046D8
:102E800000F08FFB30B1204600F0CEFB4FF0FF305A
:102E9000BDE8F0873946204600F083FB28B1204684
:102EA00000F0C2FB6FF00100F2E700250DE018F81A
:102EB0000510204600F075FB28B1204600F0B4FB59
:102EC0006FF00100E4E7681C85B24D45EFDB20465A
:102ED00000F0AAFB0020DBE77047000070B500217E
:102EE00000230F22C47804B3154C246804F4E06472
:102EF000C4F5E064210AC1F10403CA40447804FA2D
:102F000003F184781440214309010E4C0678A15541
:102F1000047804F01F050124AC4005786D11AD0064
:102F200005F1E025C5F8004109E0047804F01F052B
:102F30000124AC40044D0678761145F8264070BD5A
:102F40000CED00E000E400E080E100E070B5044634
:102F50000E46154694F82400012829D194F834002F
:102F600098B9E06A20B3E06A281AA16988421FD99B
:102F7000012084F83400606918B194F83400616964
:102F80008847FFF7CDFCA06312E0A06B281AE16927
:102F900088420DD9FFF7C4FCA06394F83400401CAC
:102FA00084F83400606918B194F834006169884786
:102FB00094F83C00002812DD94F8240078B9FFF75B
:102FC000AFFC216B401A216A884208D9206918B1E8
:102FD00094F83C0021698847002084F83C0070BDCB
:102FE00010B50446FFF79CFCE062A06808B1A06839
:102FF000804710BD10B50446FFF792FC2063E068DF
:1030000008B1E0688047002084F83400D4E90B1050
:10301000401AA169884205D294F83C00401C84F80B
:103020003C0002E0002084F83C0010BD01657047C0
:1030300070B504460D4694F85400012811D1012DB5
:103040000FD1A06DE062A16CE06AFDF7DFFB01D259
:10305000A06CE062E16CE06AFDF7CEFB01D2E06CAF
:10306000E0620DB9012000E0002084F8540070BD3A
:103070002DE9F04F8FB00446884615461E464FF0A6
:10308000000A4146206DFDF7F7F80746D4E908012C
:103090002A1A66EB01011046FDF7FAFA8346464903
:1030A000FDF7F0F882463946E06BFDF7EBF8814614
:1030B0004FF0FF33D4E908105940584001435BD02A
:1030C0000021606CFDF798FB11D04146606BFDF765
:1030D000D3F80D90616CFDF7D5F883465146FDF7A6
:1030E00003F920634846216BFDF774F881460021FF
:1030F000206CFDF781FB3FD05046FDF735FBCDE955
:1031000006013846A16BFDF765F80190216CFDF7CB
:10311000B9F88346FDF728FB0022284BCDE90201D0
:10312000FDF7C7F9CDE90401DDE90623FDF7C1F993
:10313000CDE90A01E06AFDF717FBCDE90801DDE9F9
:103140000A23FDF70FF9CDE90C01FDF739FBE06229
:10315000A16CE06AFDF75AFB02D2A06CE06206E0C7
:10316000E16CE06AFDF748FB01D2E06CE0624846A2
:10317000E16AFDF72FF881464846A16CFDF746FB52
:1031800002D2D4F8489006E04846E16CFDF734FBE3
:1031900001D2D4F84C9094F8540008B1D4F8589067
:1031A000C4F83480C4E90856A763C4F82890484698
:1031B0000FB0BDE8F08F0000BD3786350000E03F5E
:1031C00070B504460D461C2229462046FCF7ACFF8C
:1031D000E06820652068E06360682064A06860643F
:1031E0006069E0642069A064A069E0624FF0FF318B
:1031F0002162616200206063A069A065002084F8FC
:10320000540070BD4FF0FF32026242628169C162B8
:103210007047000000B589B000200890012104200B
:1032200000F000F94FF4C060ADF8200010208DF8D8
:10323000230002208DF8220008A92748FFF77EFA14
:103240000121C80200F0EEF80020059006900790DA
:10325000ADF8160040F2E730ADF818000020ADF8E8
:1032600014008DF81C0005A91C4800F03DFC00204E
:1032700001900290039004906020ADF804000020BB
:10328000ADF80C000120ADF806000020ADF80A00F2
:1032900001A9124800F0D0FB0121042000F0C2F87F
:1032A0004FF48070ADF8200018208DF82300012025
:1032B0008DF8220008A90848FFF740FA01210748C5
:1032C00000F085FB0121054800F08DFB012103483A
:1032D00000F095FB09B000BD00080140002C014042
:1032E00000B589B0002008900121082000F09AF86C
:1032F000A020ADF8200010208DF8230002208DF8CA
:10330000220008A92648FFF719FA0121042000F03D
:1033100069F80020059006900790ADF8160040F27D
:10332000E730ADF818000020ADF814008DF81C004F
:1033300005A91C4800F0D8FB0020019002900390E2
:1033400004906020ADF804000020ADF80C000120CE
:10335000ADF806000020ADF80A0001A9114800F000
:103360006BFB0121082000F05DF84020ADF8200043
:1033700018208DF8230001208DF8220008A90848A4
:10338000FFF7DCF90121074800F021FB0121054886
:1033900000F029FB0121034800F031FB09B000BD1A
:1033A000000C01400008004070470000014600206A
:1033B000034A506820F440400843506070470000C2
:1033C0000010024029B1064A52690243044B5A6177
:1033D00004E0034A52698243014B5A61704700007E
:1033E0000010024029B1064AD2690243044BDA6157
:1033F00004E0034AD2698243014BDA61704700005E
:103400000010024029B1064A12690243044B1A61B6
:1034100004E0034A12698243014B1A6170470000BD
:103420000010024029B1064A92690243044B9A6196
:1034300004E0034A92698243014B9A61704700009D
:103440000010024030B500210022002400232D4D41
:103450006D6805F00C0121B1042905D0082923D19C
:1034600005E0294D056022E0274D05601FE0254D50
:103470006D6805F47012234D6D6805F480340225E3
:1034800005EB92421CB9214D554305600BE01D4DE3
:103490006D6805F400351DB11C4D5543056002E013
:1034A000194D5543056002E0174D056000BF00BF90
:1034B000144D6D6805F0F0010909154D6B5C056848
:1034C000DD4045600F4D6D6805F4E061090A104D5F
:1034D0006B5C4568DD4085600A4D6D6805F46051A0
:1034E000C90A0B4D6B5C4568DD40C560054D6D68D4
:1034F00005F44041890B074D6B5CC568B5FBF3F5DE
:10350000056130BD0010024000127A0000093D0044
:10351000D0000020E00000202DE9F04104460E46D6
:103520000027072523E0A18800222068FFF7E3F9A0
:10353000A1890122A068FFF7DEF9022000F078FCE3
:10354000A18801222068FFF7D6F9022000F070FC64
:10355000A189A068FFF7C6F9012800D100E000208A
:1035600018B10120A8403843C7B2681E45B2002DEB
:10357000D9DAA18800222068FFF7BDF92EB1A18910
:103580000022A068FFF7B7F904E0A1890122A06832
:10359000FFF7B1F9022000F04BFC3846BDE8F0819E
:1035A000704770B504460E4607251DE0A18800222D
:1035B0002068FFF7A0F90123AB4033400BB1012392
:1035C00000E000231A46A189A068FFF794F90220C1
:1035D00000F02EFCA18801222068FFF78CF9022060
:1035E00000F026FC681E45B2002DDFDAA18800221B
:1035F0002068FFF780F9A1890122A068FFF77BF915
:10360000022000F015FCA18801222068FFF773F961
:10361000022000F00DFCA189A068FFF763F90128E2
:1036200000D170BD0020FCE710B50446A18800223F
:103630002068FFF760F9012000F0FAFBA189002261
:10364000A068FFF758F9012000F0F2FBA1880122E1
:103650002068FFF750F9012000F0EAFBA189012260
:10366000A068FFF748F9012000F0E2FB10BD000060
:10367000F0B5044600200FE0C0F107060125B54073
:103680000D400DB12B2600E0152604EB4407194D23
:1036900005EBC7052E54401C0828EDD3002010E090
:1036A000C0F107060125B54015400DB12B2600E0FD
:1036B000152604EB44070F4D05EBC70508352E54BE
:1036C000401C0828ECD3002010E0C0F107060125BB
:1036D000B5401D400DB12B2600E0152604EB440734
:1036E000044D05EBC70510352E54401C0828ECD3BB
:1036F000F0BD00000904002010B500F001F810BD75
:103700000CB50020019000903348006840F48030F0
:103710003149086000BF3048006800F40030009074
:103720000198401C0190009818B90198B0F5A06F5D
:10373000F1D12948006800F4003010B10120009058
:1037400001E0002000900098012843D12348006840
:1037500040F01000214908600846006820F007008A
:1037600008600846006840F0020008601A48406897
:10377000194948600846406848600846406840F477
:10378000806048600846406820F47C104860084625
:10379000406840F4E81048600846006840F08070D7
:1037A000086000BF0C48006800F000700028F9D0E5
:1037B0000948406820F0030007494860084640680F
:1037C00040F00200486000BF0348406800F00C0071
:1037D0000828F9D10CBD0000001002400020024072
:1037E00070B533480078012806D0022812D003288B
:1037F0001CD0042859D137E0FFF792F82D49086012
:1038000002202B4908700020FEF7B0FB0020FEF7D5
:10381000B7FB4AE0FFF784F826490968401AB0F57B
:10382000FA7F02D90320224908703EE0FEF792FB9E
:10383000FEF72AF804460021FCF7E8FF06D21E48EE
:10384000FEF794FB1C48FEF79BFB05E01B48FEF7C8
:103850008DFB1A48FEF794FBFFF762F815490860E4
:1038600004201349087020E0FEF70EF8044624F007
:10387000004005461249FCF7BFFF07D200200C4963
:103880000870FDF7F5FDFEF765FB0EE0FFF748F861
:1038900008490968401A41F28831884204D9002059
:1038A000FEF764FA00BFFEE700BF00BF70BD000076
:1038B0005C0000206000002000C0794400C079C492
:1038C0000000204208B501210420FFF7ABFD0020D5
:1038D00000900220ADF8000010208DF803000220B7
:1038E0008DF8020069460248FEF728FF08BD000077
:1038F000000801404FF0E020006900F4803020B162
:1039000002480068401C014908607047E40000203C
:1039100010B51348006840F00100114908600846DE
:103920004068104908400E494860084600680E4942
:1039300008400B4908600846006820F480200860B1
:103940000846406820F4FE0048604FF41F0088607D
:10395000FFF7D2FE4FF000600449086010BD000080
:10396000001002400000FFF8FFFFF6FE08ED00E047
:103970000EB501210846FFF735FD002000900190AB
:103980000290ADF8020042F20F70ADF8040047203B
:10399000ADF8000000208DF8080069464FF0804027
:1039A00000F0A2F82021480600F092F801218807D3
:1039B00000F019F80EBD21B1028842F080020280A9
:1039C00004E002884FF67F731A400280704721B1ED
:1039D000828842F00102828004E082884FF6FE7302
:1039E0001A408280704721B1028842F001020280B1
:1039F00004E002884FF6FE731A400280704731B12E
:103A0000B0F8442042F40042A0F8442005E0B0F8A9
:103A10004420C2F30E02A0F8442070471AB18389F3
:103A20000B43838102E083898B438381704741EAA2
:103A30000203A0F84830704770B50024002200232C
:103A4000058C4FF6FE7635400584028C8388048B06
:103A50004FF68F752C40B51E2C400D882C43751EDB
:103A60002A400D892A434D882A43144DA8420BD081
:103A7000134DA84208D0134DA84205D0124DA842BC
:103A800002D0124DA84213D14FF6F7752A404D8946
:103A90002A434FF6FB752A408D882A434FF6FF656F
:103AA0002B404FF6FF552B408D892B43CD892B435F
:103AB00083800483CD888586028470BD002C0140FC
:103AC00000340140004001400044014000480140F2
:103AD00082884FF68F731A40828082880A438280E0
:103AE0007047818670470000002202881D4B984273
:103AF0000ED01D4B98420BD0B0F1804F08D01B4B1D
:103B0000984205D01A4B984202D01A4B984204D1E1
:103B10004FF68F731A404B881A43174B984207D0C1
:103B2000164B984204D04FF6FF431A40CB881A43F5
:103B300002808B8883850B8803850A4B98420BD0C3
:103B4000094B984208D00E4B984205D00D4B984235
:103B500002D00D4B984201D10B7A03860123838258
:103B600070470000002C0140003401400004004078
:103B700000080040000C004000100040001400400D
:103B800000400140004401400048014010B52021A0
:103B9000174800F043F8012829D1154800F0DCF857
:103BA000C4B20A2C13D10021124802880088401C9C
:103BB000104B18801048815401461048FCF7DFFA7A
:103BC00000200C49088001200D4908700EE00948CA
:103BD0000088FE2802DB002006490880054801888D
:103BE0000088401C034A10800348445400BF10BDA5
:103BF0000048004000000020F400002034010020B4
:103C00000200002021B1828942F40052828104E046
:103C100082894DF6FF731A40828170470246002068
:103C2000B1F5007F00D100BF13880B400BB101201C
:103C300000E000207047F0B5034600240026002570
:103C4000002040F66A17B94200D100BF1846C1F300
:103C5000421401F01F06012707FA06F5012C01D1D5
:103C60000C3004E0022C01D1103000E014301AB105
:103C700007682F43076002E00768AF430760F0BDA5
:103C80002DE9F04786B005460E460024A24600BF47
:103C9000A1460027B08900B100BF2F462C8A4CF600
:103CA000FF700440F08804432C82AC894EF6F31078
:103CB0000440B08831890843718908430443AC81CA
:103CC000AC8A4FF6FF400440B0890443AC8201A89F
:103CD000FFF7B8FB1F48874202D1DDF810A001E0D2
:103CE000DDF80CA0A88900F4004040B10AEBCA003E
:103CF00000EB0A1031684900B0FBF1F807E00AEB6D
:103D0000CA0000EB0A1031688900B0FBF1F86420AA
:103D1000B8FBF0F004012009642101FB1089A88997
:103D200000F4004040B1322000EBC900B0FBF1F0DC
:103D300000F00700044308E0322000EB0910642182
:103D4000B0FBF1F000F00F0004432C8106B0BDE899
:103D5000F08700000038014001468888C0F3080061
:103D6000704700BFFEE7000010B50446012C13D1D8
:103D70000A48007850B90120FDF7F8FFFDF778FBFD
:103D8000FEF7E8F801200549087005E00020FDF77E
:103D9000EDFF00200149087010BD000070000020F8
:103DA00000487047F000002002E008C8121F08C158
:103DB000002AFAD170477047002001E001C1121FAC
:103DC000002AFBD170472DE9F04705460F46904683
:103DD0000026781E1FFA80F91CE0A9EB060000EB14
:103DE000D07106EB61018CB255F824004146FCF716
:103DF0000DFD03D2601E1FFA80F90BE055F8240078
:103E00004146FCF7F9FC02D2601C86B202E0204673
:103E1000BDE8F0874E45E0DD2046F9E710B50446E1
:103E200002492046FCF72EFA10BD000035FA8E3C00
:103E3000002100E0491CC2008A42FBD8704770B5DF
:103E40000C460546FCF7EFFD00F07040B0F1005F56
:103E500007D024F00040C0F1FF40C00F04BF20464F
:103E600070BD284670BDFCF7F9FFFEF73BF9FDF782
:103E7000BBF8FDF795FFFDF70DFDFDF769F9FDF7BF
:103E8000D9F8FDF763FC0DE0FDF7BAFCFDF7CAF8C1
:103E9000FDF7B2FFFDF730FDFCF7E8FFFDF726F96F
:103EA000FDF7E6F9F0E700002DE9F84F04460021A0
:103EB0002046FCF7A1FC04D2DFF8409084F00044D7
:103EC00001E04FF07E5922464FF480610C48FFF725
:103ED0007AFF83465846FCF7D6FB49460090FCF72C
:103EE000D1F98246FCF740FC0746064A064BFCF730
:103EF000E0FA0546FCF764FCBDE8F88F000080BFDF
:103F0000A4510008182D4454FB21593F2DE9F047D6
:103F100082460C4600212046FCF76EFC0ED10021A3
:103F20005046FCF773FC02D81F48BDE8F08700211B
:103F30005046FCF761FC01D21C48F6E7214650468A
:103F4000FCF7D2F90546FFF7AFFF81460021204676
:103F5000FCF752FC25D200215046FCF757FC0CD24E
:103F60004846FCF701FC0746114A124BFCF7FAF9E8
:103F70000546FCF725FC814613E000215046FCF77E
:103F80003BFC0CD24846FCF7EFFB0746084A094BBE
:103F9000FCF789FA0546FCF713FC814601E0DFF8DF
:103FA00018904846C1E70000DB0FC93FDB0FC9BFCF
:103FB000182D4454FB210940DB0F49C02DE9FC5F5B
:103FC000824600BF2AF000408346FCF7CDFB064640
:103FD000274A284BFCF76DFA80460022264BFCF757
:103FE000C1F9CDE90001FCF7A7FB04460D464FF4EB
:103FF0008061641845F10005200B40EA05512A0B49
:10400000100340EA11500A03A41A65EB00054FF4AF
:104010008061611A75F1000004D2184850F824003C
:10402000BDE8FC9F4FF40061611A75F1000006D2F3
:1040300040F2FF70001B114951F82000F0E74FF4E7
:104040004061611A75F1000008D24FF40060201A37
:104050000A4951F8200080F00040E1E740F6FF7087
:10406000001B064951F8200080F00040D8E700000E
:1040700083C8C96D305F84400000E03FA441000860
:104080002DE9FC5F834600215846FCF7B5FB04D2BE
:10409000DFF8C0A08BF0004B01E04FF07E5A58468D
:1040A000FCF762FB06462C4A2C4BFCF702FA8046D2
:1040B00000222B4BFCF756F9CDE90001FCF723FB5E
:1040C00000250446200B40EA05512A0B100340EA64
:1040D00011500A03A41A65EB00054FF48061611AC0
:1040E00075F1000007D21F4850F824105046FCF725
:1040F000C9F8BDE8FC9F4FF40061611A75F100003A
:1041000009D240F2FF70001B164A52F820105046A8
:10411000FCF7B8F8EDE74FF44061611A75F1000063
:104120000BD28AF000464FF40060201A0D4A52F874
:1041300020103046FCF7A6F8DBE78AF0004640F690
:10414000FF70001B074A52F820103046FCF79AF81F
:10415000CFE70000000080BF83C8C96D305F844096
:104160000000E03FA44100081CB50446012001AB5B
:104170002246D02100900348FEF7F2FD9DF804008E
:104180001CBD00007401002013B582B0044601205C
:1041900003AB2246D02100900148FEF754FE1FBD1C
:1041A00074010020000000008010C93A8010493BD3
:1041B00060CC963B8010C93BA054FB3B60CC163CC6
:1041C00070EE2F3C8010493C5E2E623C6E507B3C72
:1041D0003F398A3C47CA963C3659A33C3EEAAF3C3D
:1041E000467BBC3C350AC93C3D9BD53C2C2AE23C75
:1041F00034BBEE3C234AFB3C89EC033D01340A3DD1
:10420000787B103DF0C2163D670A1D3DDF51233D0E
:104210005699293DC2DF2F3D3927363DA46D3C3DDF
:104220000FB4423D87FB483DF2414F3D5D88553D0F
:10423000C8CE5B3D2714623D925A683DF19F6E3DAA
:104240005CE6743DBB2B7B3D8DB8803D3CDB833D04
:1042500065FD863D14208A3D3E428D3DED64903DD6
:104260001687933D3FA9963DE2CA993D0BED9C3DD3
:10427000AE0EA03D5130A33DF451A63D9773A93D2C
:104280003A95AC3D56B6AF3DF9D7B23D16F9B53DBE
:10429000AC19B93DC93ABC3D605BBF3DF67BC23D40
:1042A0008D9CC53D23BDC83DBADDCB3DCAFDCE3D8D
:1042B000DA1DD23DEA3DD53D745DD83DFE7CDB3D47
:1042C000889CDE3D12BCE13D9CDBE43DA0FAE73D6D
:1042D000A419EB3DA838EE3D2657F13DA375F43DFA
:1042E0002194F73D9EB2FA3D96D0FD3D4777003EC2
:1042F0004206023EFB94033EB323053E6CB2063EEB
:104300002541083E9ACF093E0F5E0B3E42EC0C3E23
:10431000747A0E3EA708103ED996113EC824133E6B
:10432000B7B2143E6440163E53CE173EFF5B193EB3
:1043300068E91A3ED1761C3E3A041E3E60911F3E4B
:10434000861E213EACAB223E8F38243E72C5253EF0
:104350005452273EF4DE283E946B2A3EF0F72B3E63
:104360004D842D3EAA102F3EC39C303EDD28323EA8
:10437000B3B4333E8940353E60CC363EF357383EC9
:1043800086E3393ED66E3B3E27FA3C3E34853E3EC0
:104390004110403E4E9B413E1826433E9FB0443E56
:1043A000693B463EACC5473E3350493E34DA4A3E4F
:1043B00077644C3E78EE4D3E36784F3EF301513EE9
:1043C0006E8B523EE814543E629E553E9A27573EED
:1043D0008EB0583E82395A3E76C25B3E274B5D3ED8
:1043E00095D35E3E035C603E71E4613E9C6C633E2F
:1043F00084F4643E6C7C663E1004683EB58B693E76
:1044000016136B3E789A6C3E96216E3EB5A86F3EB1
:10441000902F713E6BB6723E043D743E59C3753E9B
:10442000AE49773EC0CF783ED2557A3EA1DB7B3E87
:1044300070617D3EFBE67E3E2236803EC6F8803EC1
:1044400049BB813ECC7D823E2D40833E6D02843E41
:10445000ACC4843ECB86853EE948863EE50A873E6D
:10446000C0CC873E9B8E883E5550893EED118A3EDA
:1044700084D38A3EFB948B3E71568C3EC6178D3E8C
:10448000F9D88D3E2C9A8E3E3E5B8F3E2E1C903E80
:104490001EDD903EED9D913E9A5E923E251F933E1D
:1044A000B1DF933E3CA0943E8560953ECD20963E84
:1044B000F4E0963E1BA1973E2061983E0421993E70
:1044C000C6E0993E88A09A3E28609B3EA71F9C3E6E
:1044D00026DF9C3E849E9D3EC05D9E3EDA1C9F3E34
:1044E000F5DB9F3EED9AA03EC559A13E7A18A23E4B
:1044F00030D7A23EC495A33E3754A43EA912A53E90
:10450000D9D0A53E088FA63E164DA73E240BA83E47
:10451000EFC8A83EBA86A93E6344AA3E0C02AB3E51
:1045200072BFAB3ED97CAC3E1D3AAD3E40F7AD3ECE
:1045300042B4AE3E4371AF3E022EB03EC0EAB03E42
:104540005DA7B13EFA63B23E5320B33EADDCB33E4D
:10455000E598B43EFC54B53EF110B63EC4CCB63E30
:104560007688B73E2844B83EB9FFB83E28BBB93E6E
:104570007576BA3EA131BB3EABECBB3EB5A7BC3EA7
:104580007C62BD3E431DBE3EE9D7BE3E6C92BF3E3F
:10459000CF4CC03E1007C13E51C1C13E4E7BC23E12
:1045A0004C35C33E07EFC33EC1A8C43E5A62C53E68
:1045B000D21BC63E28D5C63E5C8EC73E6F47C83E5E
:1045C0008200C93E52B9C93E0072CA3EAE2ACB3EF5
:1045D0003BE3CB3E849BCC3ECE53CD3EF60BCE3E52
:1045E000DBC3CE3EC07BCF3E8333D03E25EBD03EF7
:1045F000A5A2D13E045AD23E4111D33E5CC8D33E5F
:10460000567FD43E5036D53E07EDD53E9CA3D63ED0
:10461000105AD73E6210D83E93C6D83EC47CD93ECD
:10462000B132DA3E7DE8DA3E289EDB3EB153DC3E15
:104630003909DD3E7FBEDD3EA373DE3EA628DF3EA8
:1046400087DDDF3E4792E03EE546E13E61FBE13E2D
:10465000BCAFE23EF563E33E0D18E43E03CCE43E1E
:10466000D87FE53E6A33E63EFBE6E63E6B9AE73EE0
:10467000984DE83EC500E93EAFB3E93E7766EA3EB5
:104680003F19EB3EC5CBEB3E287EEC3E6A30ED3E5B
:104690008BE2ED3E6894EE3E4546EF3E01F8EF3E7C
:1046A0007AA9F03EF35AF13E280CF23E3CBDF23EB0
:1046B0002F6EF33E001FF43EAFCFF43E3D80F53E3B
:1046C0008830F63ED2E0F63EDA90F73EC040F83E43
:1046D00084F0F83E27A0F93EA94FFA3EE7FEFA3EE5
:1046E00025AEFB3E205DFC3EFA0BFD3EB2BAFD3E20
:1046F0004969FE3EBE17FF3EEFC5FF3E003A003F50
:10470000F790003FDEE7003FB43E013F7995013F5F
:104710001CEC013FAF42023F3199023FA2EF023F42
:10472000F145033F419C033F6FF2033F8C48043F38
:10473000999E043F84F4043F5E4A053F27A0053F4D
:10474000E0F5053F884B063F0EA1063F83F6063F86
:10475000E84B073F3CA1073F6FF6073F904B083FF0
:10476000A1A0083FA1F5083F804A093F4D9F093F9E
:104770000AF4093FA6480A3F419D0A3FBBF10A3FA0
:1047800024460B3F6B9A0B3FA2EE0B3FC8420C3FF7
:10479000DD960C3FD1EA0C3FB43E0D3F86920D3FB3
:1047A00036E60D3FD6390E3F658D0E3FE3E00E3FF6
:1047B00040340F3F8B870F3FB6DA0F3FCF2D103FAE
:1047C000D880103FD0D3103FA626113F6C79113FFF
:1047D00021CC113FB41E123F3771123F98C3123FD4
:1047E000E815133F2768133F56BA133F630C143F75
:1047F0005F5E143F3AB0143F0402153FBD53153FAE
:1048000055A5153FDCF6153F4148163FA699163FC2
:10481000D9EA163F0C3C173F1E8D173F0DDE173FA0
:10482000EC2E183FBB7F183F78D0183F1421193F5A
:104830008F71193FF8C1193F51121A3F99621A3FFF
:10484000C0B21A3FC5021B3FB9521B3F9CA21B3F7F
:104850005EF21B3F0F421C3F9F911C3F1EE11C3F1D
:104860008C301D3FD87F1D3F03CF1D3F1D1E1E3FB7
:10487000266D1E3F0EBC1E3FE50A1F3F9B591F3F82
:104880003FA81F3FC2F61F3F3545203F9693203F6C
:10489000D6E1203FF52F213F027E213FFFCB213F74
:1048A000DB19223F9467223F3DB5223FD602233FCA
:1048B0004C50233FA19D233FE6EA233F1938243F74
:1048C0002B85243F2DD2243F0C1F253FCA6B253F4B
:1048D00078B8253F0305263F7E51263FE99D263FB8
:1048E00031EA263F5936273F6F82273F64CE273F64
:1048F000481A283F0A66283FABB1283F3BFD283FB6
:10490000BB48293F1894293F55DF293F802A2A3F79
:104910008A752A3F83C02A3F5B0B2B3F21562B3FD2
:10492000C7A02B3F4AEB2B3FBD352C3F0F802C3FC0
:104930004FCA2C3F6E142D3F6C5E2D3F58A82D3F63
:1049400024F22D3FDE3B2E3F77852E3FFFCE2E3FBC
:1049500055182F3FAA612F3FCEAA2F3FE0F32F3FDC
:10496000E23C303FC285303F81CE303F1E17313FA1
:10497000AB5F313F15A8313F6FF0313FA838323F70
:10498000D080323FC5C8323FAA10333F7D58333FF5
:1049900030A0333FC0E7333F302F343F8E76343F73
:1049A000CBBD343FF704353F014C353FEA92353FEC
:1049B000B2D9353F6820363FFD66363F82AD363F7F
:1049C000E4F3363F263A373F4580373F54C6373FFA
:1049D000410C383F1E52383FC897383F61DD383FA1
:1049E000D922393F4068393F86AD393FAAF2393F75
:1049F000BD373A3F9E7C3A3F6EC13A3F2D063B3F62
:104A0000BA4A3B3F368F3B3F91D33B3FDB173C3F9E
:104A1000035C3C3F0AA03C3FEFE33C3FB3273D3FF4
:104A2000666B3D3FF7AE3D3F67F23D3FC6353E3FCB
:104A300003793E3F1FBC3E3F19FF3E3F03423F3FCD
:104A4000BA843F3F60C73F3FF609403F594C403F63
:104A5000AC8E403FDDD0403FEC12413FDA54413F45
:104A6000B796413F73D8413F0D1A423F855B423FA5
:104A7000ED9C423F22DE423F471F433F4A60433F97
:104A80003CA1433FFCE1433FAB22443F3963443FF9
:104A9000A5A3443FEFE3443F2924453F4164453FFC
:104AA00027A4453FFCE3453FC023463F5263463FB2
:104AB000D3A2463F22E2463F6021473F8D60473FF9
:104AC000889F473F61DE473F2A1D483FD15B483FF3
:104AD000569A483FBAD8483FFD16493F1D55493FB1
:104AE0002D93493F0BD1493FD80E4A3F834C4A3F53
:104AF0000D8A4A3F86C74A3FCD044B3FF2414B3FA8
:104B0000067F4B3FF9BB4B3FCBF84B3F7A354C3FD1
:104B100008724C3F75AE4C3FD1EA4C3FFA264D3FF0
:104B200013634D3F0A9F4D3FCFDA4D3F83164E3FF3
:104B300015524E3F978D4E3FE7C84E3F14044F3FEE
:104B4000313F4F3F1C7A4F3FF6B44F3FAEEF4F3FE0
:104B5000352A503FAA64503FFE9E503F30D9503F07
:104B60005113513F404D513F0E87513FCAC0513FF5
:104B700055FA513FCE33523F166D523F4CA6523F2D
:104B800061DF523F4418533F1651533FC689533F8C
:104B900055C2533FC2FA533F0D33543F386B543F15
:104BA00040A3543F38DB543FFD12553FA14A553FC7
:104BB0003482553F95B9553FD4F0553F0228563FB2
:104BC000FF5E563FEA95563FA3CC563F4B03573FF7
:104BD000C139573F2670573F6AA6573F7BDC573F86
:104BE0007B12583F5A48583F077E583FA2B3583F60
:104BF0001DE9583F641E593F9C53593FB188593FA6
:104C000094BD593F67F2593F18275A3FA75B5A3F57
:104C100004905A3F50C45A3F7BF85A3F732C5B3F75
:104C20005B605B3F21945B3FB4C75B3F37FB5B3FFF
:104C3000882E5C3FC8615C3FD5945C3FD2C75C3F27
:104C40009CFA5C3F562D5D3FDD5F5D3F53925D3FBB
:104C500097C45D3FBAF65D3FBB285E3FAB5A5E3FEF
:104C6000698C5E3F06BE5E3F80EF5E3FDA205F3FAD
:104C700011525F3F27835F3F1CB45F3FEFE45F3F0C
:104C80009015603F2046603F8E76603FCAA6603F29
:104C9000F5D6603FEE06613FD636613F8C66613FD8
:104CA0002096613F93C5613FE4F4613F1424623F65
:104CB0002253623F0E82623FD9B0623F83DF623F80
:104CC000FA0D633F603C633F946A633FA698633F7D
:104CD000A8C6633F77F4633F2522643FB14F643F2A
:104CE0001C7D643F54AA643F7BD7643F7104653FD9
:104CF0005531653F075E653F988A653F17B7653F49
:104D000065E3653F800F663F8A3B663F7367663F9A
:104D10002993663FCFBE663F42EA663F9415673FE0
:104D2000C440673FD36B673FC096673F8BC1673F07
:104D300025EC673FAD16683F0341683F386B683F1D
:104D40004A95683F3CBF683F0CE9683FA912693F3C
:104D5000363C693F9065693FC98E693FE1B7693F5D
:104D6000D6E0693FAB096A3F4D326A3FDE5A6A3F7F
:104D70003C836A3F7AAB6A3F95D36A3F8FFB6A3FB9
:104D800057236B3F0E4B6B3F93726B3FF6996B3F14
:104D900037C16B3F57E86B3F560F6C3F22366C3F75
:104DA000CD5C6C3F66836C3FBDA96C3F03D06C3F0C
:104DB00027F66C3F191C6D3FEA416D3FA9676D3FB7
:104DC000268D6D3F92B26D3FDCD76D3FF4FC6D3F99
:104DD000EA216E3FBF466E3F726B6E3FF38F6E3FB0
:104DE00063B46E3FA1D86E3FBDFC6E3FB8206F3FED
:104DF00080446F3F38686F3FBD8B6F3F21AF6F3F7F
:104E000052D26F3F73F56F3F6118703F3F3B703F69
:104E1000D95D703F6380703FCBA2703F00C5703F8B
:104E200014E7703F0709713FD82A713F774C713FF3
:104E3000F46D713F508F713F8AB0713FA2D1713FC5
:104E400088F2713F4D13723FF033723F7154723FDD
:104E5000C174723FFF94723F0BB5723FE5D4723F4D
:104E6000AEF4723F4414733FB933733F0D53733F35
:104E70003F72733F3F91733F1DB0733FD9CE733F75
:104E800074ED733FDD0B743F242A743F4948743F2F
:104E90004D66743F1F84743FCFA1743F5DBF743F64
:104EA000CADC743F05FA743F2F17753F1634753FFF
:104EB000EC50753F8F6D753F228A753F83A6753F15
:104EC000B1C2753FCEDE753FB9FA753F7216763FB7
:104ED0001A32763F904D763FE468763F1684763FEF
:104EE000279F763F06BA763FC3D4763F5FEF763F83
:104EF000C809773F1024773F363E773F3A58773FCF
:104F00000D72773FBD8B773F4CA5773FBABE773F99
:104F1000F5D7773F0FF1773F070A783FCD22783FEB
:104F2000713B783FF453783F556C783F8484783FE9
:104F3000919C783F7CB4783F36CC783FCEE3783F85
:104F400044FB783F9912793FBB29793FBC40793FB8
:104F50009B57793F486E793FE484793F3D9B793F89
:104F600085B1793F9BC7793F90DD793F62F3793F07
:104F700003097A3F821E7A3FDF337A3F0A497A3F3C
:104F8000245E7A3FFC727A3FC2877A3F569C7A3F12
:104F9000C9B07A3F19C57A3F38D97A3F35ED7A3FA3
:104FA00011017B3FBA147B3F41287B3FA73B7B3FEE
:104FB000EC4E7B3FFE617B3FEF747B3FAD877B3FD9
:104FC0005B9A7B3FC5AC7B3F1FBF7B3F46D17B3F9E
:104FD0004CE37B3F30F57B3FE2067C3F83187C3F10
:104FE000E1297C3F2E3B7C3F494C7C3F425D7C3F2E
:104FF000096E7C3FAE7E7C3F328F7C3F849F7C3F3E
:10500000C4AF7C3FC2BF7C3FAFCF7C3F6ADF7C3FF9
:1050100003EF7C3F7AFE7C3FBF0D7D3FE31C7D3F6D
:10502000D42B7D3FB43A7D3F52497D3FDE577D3FD3
:1050300038667D3F71747D3F88827D3F6D907D3FF6
:10504000309E7D3FD2AB7D3F41B97D3F8FC67D3FD6
:10505000AAD37D3FB5E07D3F8DED7D3F33FA7D3FA7
:10506000C8067E3F2B137E3F5C1F7E3F6B2B7E3F2F
:1050700058377E3F24437E3FBE4E7E3F365A7E3FAA
:105080008C657E3FB0707E3FB37B7E3F83867E3FE4
:1050900043917E3FD09B7E3F2BA67E3F64B07E3FF8
:1050A0007CBA7E3F72C47E3F36CE7E3FD8D77E3FED
:1050B00048E17E3F96EA7E3FC3F37E3FCEFC7E3FD3
:1050C000A7057F3F5E0E7F3FE3167F3F471F7F3F71
:1050D00089277F3F982F7F3F86377F3F533F7F3F12
:1050E000ED467F3F664E7F3FBD557F3FE25C7F3F91
:1050F000E5637F3FC66A7F3F76717F3F03787F3FDE
:105100006F7E7F3FA9847F3FC28A7F3FB8907F3FF9
:105110007D967F3F209C7F3F90A17F3FDFA67F3F12
:105120000CAC7F3F07B17F3FF2B57F3F99BA7F3F1D
:105130002FBF7F3F93C37F3FC5C77F3FE6CB7F3FF6
:10514000D5CF7F3F91D37F3F3DD77F3FB6DA7F3FBB
:10515000FDDD7F3F22E17F3F26E47F3F08E77F3F81
:10516000B8E97F3F46EC7F3FA2EE7F3FDCF07F3F18
:10517000F5F27F3FEDF47F3FB2F67F3F44F87F3F8B
:10518000C6F97F3F16FB7F3F33FC7F3F3FFD7F3FEC
:1051900019FE7F3FC1FE7F3F47FF7F3FACFF7F3F50
:1051A000EFFF7F3F000000008010C93A8010493BAC
:1051B00060CC963B8010C93BA054FB3B60CC163CB6
:1051C00070EE2F3C8010493CC136623CD1587B3C8C
:1051D000713D8A3C91D0963C9961A33CBAF4AF3CB6
:1051E000DB87BC3CFC1AC93C1DAED53C3E41E23CD1
:1051F0005FD4EE3C7F67FB3C5DFE033DED470A3D1F
:105200008A92103D27DD163DC4271D3D6D73233D59
:105210000ABE293DB309303D5C55363D06A13C3DF3
:10522000AFEC423D6539493D1A864F3DD0D2553DE0
:10523000861F5C3D486D623DFEB9683DC0076F3D0D
:105240008F56753D51A47B3D90F9803DF720843DFC
:10525000E448873DD2708A3DBF988D3DADC0903DFA
:1052600021E9933D9411973D8E3A9A3D88639D3D87
:10527000828CA03D03B6A33D83DFA63D0309AA3D72
:105280000933AD3D105DB03D1687B33DA3B1B63DCA
:10529000B5DCB93DC807BD3DDB32C03D745EC33DE2
:1052A0000D8AC63DA6B5C93DC6E1CC3D6B0ED03DCD
:1052B000103BD33D3C68D63D6895D93D94C2DC3D5A
:1052C00045F0DF3D7E1EE33DB64CE63D747BE93D97
:1052D00032AAEC3D77D9EF3DBC08F33D8638F63D68
:1052E0005168F93DA298FC3D79C9FF3D287D013EFA
:1052F000D715033E86AE043E7847063EACE0073E37
:10530000E179093E59130B3E15AD0C3ED0460E3ED9
:10531000CEE00F3E0F7B113E5115133ED5AF143E2C
:105320009D4A163E64E5173E6F80193EBD1B1B3E2D
:105330000BB71C3EDF521E3EB3EE1F3ECA8A213E13
:10534000E126233E3BC3243ED95F263EB9FC273EDF
:10535000DD99293E00372B3EAAD42C3E54722E3EB6
:105360004110303E2EAE313EA14C333E14EB343E64
:105370000D8A363E0729383E43C8393EC3673B3E57
:1053800085073D3E48A73E3E9147403E1DE8413ED1
:10539000A988433E7829453ECDCA463E226C483E08
:1053A000BB0D4A3E96AF4B3EF8514D3E5AF44E3E31
:1053B000FF96503EE739523E12DD533E8080553E07
:1053C0003124573E69C8583EA06C5A3E1B115C3EC2
:1053D0001CB65D3E1D5B5F3E6000613E2BA6623EDB
:1053E000384C643E88F2653ED998673EAF3F693ECF
:1053F0000CE76A3E698E6C3E09366E3E2FDE6F3ECC
:105400009886713E012F733E34D8743E6781763E94
:10541000DC2A783ED8D4793E177F7B3E99297D3EA1
:105420005FD47E3ED53F803E9C15813E85EB813E1C
:1054300090C1823EDD97833E4C6E843EDD44853EC6
:10544000B01B863EA6F2863EBCC9873EF5A0883ECC
:105450007078893E2F508A3EEE278B3EEFFF8B3EC1
:1054600034D88C3E79B08D3E01898E3ECC618F3E22
:10547000B83A903EC713913E18ED913EACC6923EAD
:1054800040A0933E3A7A943E3354953E902E963EF9
:10549000EE08973EB0E3973E73BE983E9A99993EC8
:1054A000C1749A3E4C509B3EFA2B9C3EC8079D3ED1
:1054B000DAE39D3E2FC09E3EA69C9F3E5F79A03EB4
:1054C0003B56A13E7B33A23EBA10A33E5FEEA33E05
:1054D00025CCA43E0DAAA53E5988A63EC766A73E88
:1054E0007845A83E4A24A93E8203AA3EDAE2AA3EB3
:1054F00055C2AB3E34A2AC3E3482AD3E7862AE3E85
:10550000FF42AF3EC823B03EB404B13EE2E5B13E37
:1055100054C7B23E09A9B33E008BB43E3B6DB53EC5
:10552000984FB63E5932B73E3C15B83E62F8B83E89
:10553000CBDBB93E98BFBA3E87A3BB3EBA87BC3E21
:105540000D6CBD3EC650BE3EC235BF3E001BC03EC8
:105550008200C13E47E6C13E4FCCC23E9AB2C33E36
:105560002899C43E1B80C53E3067C63E874EC73E65
:105570004436C83E211EC93E6406CA3EE9EECA3E14
:10558000B2D7CB3EBEC0CC3E2EAACD3EC093CE3EBF
:10559000B77DCF3EF167D03E6E52D13E4F3DD23EF9
:1055A0007428D33EDB13D43E86FFD43E74EBD53E45
:1055B000C7D7D63E7EC4D73E57B1D83E959ED93E7A
:1055C000158CDA3EFB79DB3E2368DC3EB056DD3ECF
:1055D0005F45DE3E9434DF3E0B24E03EC713E13EE0
:1055E000C503E23E49F4E23EEFE4E33EFAD5E43E91
:1055F00069C7E53E1BB9E63E32ABE73E8C9DE83E0F
:105600004B90E93E6F83EA3ED576EB3EA16AEC3ED5
:10561000AF5EED3E2253EE3EFA47EF3E143DF03EC4
:105620009432F13E7828F23E9F1EF33E2B15F43E55
:105630001C0CF53E7103F63E2BFBF63E28F3F73EBD
:1056400089EBF83E50E4F93E7BDDFA3E0AD7FB3E9B
:10565000DDD0FC3E36CBFD3ED2C5FE3ED3C0FF3E84
:105660002D5E003F12DC003F295A013F73D8013FF5
:10567000EF56023F9DD5023F7E54033FA2D3033F26
:10568000E752043F5FD2043F1A52053FF6D1053F6F
:105690001552063F67D2063FEB52073FA2D3073FA2
:1056A0009B54083FB7D5083F1557093FA5D8093F78
:1056B000685A0A3F6EDC0A3FA65E0B3F11E10B3FC2
:1056C000BF630C3F9FE60C3FB1690D3F07ED0D3FF7
:1056D0008F700E3F5AF40E3F57780F3F98FC0F3FE4
:1056E0000A81103FAF05113F988A113FC30F123F47
:1056F0002195123FB11A133F94A0133FAB26143FDC
:10570000F3AC143F7F33153F4DBA153F5F41163F51
:10571000A3C8163F2B50173FF5D7173FF25F183F2E
:1057200042E8183FC570193F8BF9193F95821A3F1F
:10573000D00B1B3F5F951B3F321F1C3F37A91C3FFF
:105740008F331D3F1BBE1D3FE9481E3F0BD41E3F3C
:105750005F5F1F3F07EB1F3FE276203F1003213FB3
:10576000828F213F371C223F2EA9223F7A36233FCA
:10577000F8C3233FCA51243FDFDF243F486E253F53
:10578000E3FC253FD28B263F151B273F9BAA273FD3
:10579000643A283F71CA283FD15A293F85EB293FF7
:1057A0007C7C2A3FC70D2B3F569F2B3F27312C3F38
:1057B0005DC32C3FD6552D3F92E82D3FA27B2E3F57
:1057C000060F2F3FBEA22F3FB936303F19CB303FD7
:1057D000BB5F313FA1F4313FEC89323F8A1F333F39
:1057E0006CB5333FA14B343F3BE2343F1879353F32
:1057F0004910363FDFA7363FB83F373FF5D7373F31
:105800007670383F5B09393F94A2393F213C3A3FDB
:1058100013D63A3F58703B3FF20A3C3FDFA53C3F6E
:1058200031413D3FD7DC3D3FD1783E3F2F153F3FD3
:10583000E2B13F3FF94E403F63EC403F338A413F86
:105840006728423FEFC6423FDC65433F1D05443FAA
:10585000D3A4443FDD44453F3BE5453F0E86463FEC
:105860003527473FD2C8473FC26A483F170D493FD7
:10587000D1AF493FF0524A3F73F64A3F6B9A4B3FD4
:10588000B83E4C3F69E34C3F90884D3F1B2E4E3F46
:105890000BD44E3F707A4F3F2921503F58C8503F9C
:1058A000FC6F513F0518523F72C0523F5569533F3C
:1058B0009D12543F5ABC543F8C66553F2311563FAE
:1058C00030BC563FB267573F9813583F05C0583F0A
:1058D000D76C593F1E1A5A3FC9C75A3FFB755B3FE9
:1058E000A2245C3FBFD35C3F51835D3F59335E3F91
:1058F000D6E35E3FD9945F3F4146603F2FF8603F5B
:10590000A4AA613F7D5D623FDC10633FC1C4633F79
:105910001C79643FED2D653F54E3653F2099663F58
:10592000834F673F5B06683FBABD683F9F75693F1D
:105930000A2E6A3FEBE66A3F62A06B3F4F5A6C3F0C
:10594000D3146D3FCCCF6D3F5D8B6E3F73476F3F80
:105950002104703F44C1703FFE7E713F3E3D723F67
:1059600016FC723F73BB733F677B743FE23B753F2E
:10597000F4FC753F9DBE763FCB80773FA243783FD6
:10598000FF06793FF3CA793F7E8F7A3FA0547B3F71
:10599000581A7C3FA8E07C3F8FA77D3F1E6F7E3F5B
:1059A00043377F3F0000803FB264803FB0C9803FF3
:1059B000012F813F9F94813F8FFA813FCC60823FCE
:1059C00065C7823F492E833F8195833F0DFD833F0D
:1059D000ED64843F21CD843FB135853F8C9E853F6A
:1059E000C407863F5071863F2FDB863F6B45873F5C
:1059F00003B0873FEF1A883F3886883FD4F1883F4D
:105A0000CC5D893F21CA893FD2368A3FDFA38A3FD6
:105A100051118B3F177F8B3F39ED8B3FC05B8C3F24
:105A2000A3CA8C3FEB398D3F8FA98D3F98198E3FCC
:105A3000FC898E3FC6FA8E3FF46B8F3F87DD8F3F28
:105A40007F4F903FDBC1903F9C34913FC1A7913F76
:105A50004C1B923F438F923F9F03933F6878933F45
:105A60009EED933F3963943F40D9943FB54F953FA6
:105A70008FC6953FDE3D963F9AB5963FC32D973F23
:105A800061A6973F6D1F983FE598983FD312993FC5
:105A9000378D993F07089A3F56839A3F11FF9A3FE7
:105AA000427B9B3FF0F79B3F0C759C3FA6F29C3FCF
:105AB000BD709D3F4AEF9D3F4C6E9E3FD5ED9E3F92
:105AC000D26D9F3F4EEE9F3F506FA03FC7F0A03F6B
:105AD000C572A13F41F5A13F4278A23FC2FBA23F60
